:100000000C9434000C9446000C9446000C9446006A
:100010000C9446000C9446000C9446000C94460048
:100020000C9446000C9446000C9446000C94460038
:100030000C9446000C9446000C9446000C94460028
:100040000C9446000C9446000C9446000C94460018
:100050000C9446000C9448000C9446000C94460006
:100060000C9446000C94460011241FBECFEFD8E03C
:10007000DEBFCDBF21E0A0E0B1E001C01D92A33002
:10008000B207E1F70E9473000C94C3000C940000C7
:100090001F920F920FB60F9211242F933F938F93BD
:1000A000209100013091010180917C00807F80933C
:1000B0007C002115310539F02130310541F4809162
:1000C0007C00816002C080917C0080937C00109253
:1000D0000101109200018F913F912F910F900FBE5F
:1000E0000F901F90189538983998209A219A229A43
:1000F00028982A98299880917A00806880937A00BD
:1001000080917A00806280937A0080917A00846086
:1001100080937A0080917A00826080937A00809147
:100120007A00816080937A0080917C008F77809341
:100130007C0080917C00806480937C0080917C00B6
:100140008F7D80937C0080917C00877F80937C00F2
:1001500080917C008B7F80937C0080917C008D7FE0
:1001600080937C0080917C008E7F80937C008091C6
:100170007A00886080937A0080917A00806480930E
:0A0180007A007894FFCFF894FFCFC7
:00000001FF
