:100000000C9434000C9446000C9446000C9446006A
:100010000C9446000C9446000C9446000C94460048
:100020000C9446000C9446000C9446000C94460038
:100030000C9446000C9446000C9446000C94460028
:100040000C9446000C9446000C9446000C94460018
:100050000C9446000C9492000C9446000C944600BC
:100060000C9446000C94460011241FBECFEFD8E03C
:10007000DEBFCDBF21E0A0E0B1E001C01D92AE30F7
:10008000B207E1F70E9448000C9473010C94000041
:1000900087B18E7F87B987B18D7F87B984B1816041
:1000A00084B984B1826084B984B1846084B984B134
:1000B000886084B985B18D7F85B985B18E7F85B91A
:1000C00085B18B7F85B9EAE7F0E080818460808329
:1000D000808182608083808181608083ACE7B0E032
:1000E0008C918F778C938C9180648C938C918F7D85
:1000F0008C93C0E0D1E0198218828C91807F8C9320
:100100008C918C93808188608083808180688083DB
:10011000789480818064808385B1886085B98CE320
:100120008887FFCF1F920F920FB60F9211242F9343
:100130003F934F935F936F937F938F939F93AF936F
:10014000BF93EF93FF93209178008091790090E026
:10015000982F8827822BE0E0F1E0208131816085B3
:10016000418564130AC070E0868197810E945F0117
:1001700077836683118681E022C02115310521F045
:100180002130310539F01AC09093030180930201A8
:1001900080E015C0E0E0F1E09583848362817381A3
:1001A000DB01A81BB90BCD0166817781860F971FF4
:1001B000978386834F5F418780E001C080E088237A
:1001C00009F440C080910601909107018932B2E0A4
:1001D0009B0768F485B1877F85B985B18B7F85B929
:1001E00085B18E7F85B985B18D7F85B922C0883470
:1001F00023E0920768F085B1846085B985B1877F77
:1002000085B985B18D7F85B985B1816085B911C00A
:10021000895292408F31914060F485B1846085B9F4
:1002200085B1886085B985B18E7F85B985B18260D9
:1002300085B9E0E0F1E01382128215821482178200
:10024000168227C02F5F3F4F30930101209300019A
:100250002230310520F0109201011092000120910E
:10026000000130910101ECE7F0E08081807F808324
:100270002115310521F02130310531F00AC0ECE7BC
:10028000F0E08081808305C0ECE7F0E08081816050
:100290008083EAE7F0E0808180648083FF91EF91C2
:1002A000BF91AF919F918F917F916F915F914F918E
:1002B0003F912F910F900FBE0F901F901895AA1B82
:1002C000BB1B51E107C0AA1FBB1FA617B70710F041
:1002D000A61BB70B881F991F5A95A9F78095909573
:0A02E000BC01CD010895F894FFCF92
:00000001FF
