:100000000C9434000C9446000C9446000C9446006A
:100010000C9446000C9446000C9446000C94460048
:100020000C9446000C9446000C9446000C94460038
:100030000C9446000C9446000C9446000C94460028
:100040000C9446000C9446000C9446000C94460018
:100050000C9446000C94BA000C9446000C94460094
:100060000C9446000C94460011241FBECFEFD8E03C
:10007000DEBFCDBF21E0A0E0B1E001C01D92A930FC
:10008000B207E1F70E9448000C9421010C94000093
:10009000CF93DF93CDB7DEB729970FB6F894DEBFC5
:1000A0000FBECDBF87B18E7F87B987B18D7F87B9EE
:1000B00084B1816084B984B1826084B984B1846080
:1000C00084B985B18E7F85B985B18B7F85B985B1BE
:1000D0008D7F85B9EAE7F0E0808180688083808148
:1000E000806280838081846080838081826080835D
:1000F000808181608083ACE7B0E08C918F778C93B6
:100100008C9180648C938C918F7D8C93808188609E
:1001100080838081806480831A8219821092060114
:10012000789487E0E0E0F1E0DE01139601900D9213
:100130008A95E1F789858823A1F38F819885883492
:1001400023E0920750F085B18B7F85B985B182603D
:1001500085B985B18E7F85B9E4CF8934934008F79E
:1001600085B1816085B985B18D7F85B985B18460A0
:1001700085B9D7CF1F920F920FB60F9211242F93EC
:100180003F934F935F938F939F93EF93FF93809150
:10019000070190910801029720F010920801109237
:1001A00007012091070130910801ECE7F0E0808120
:1001B000807F80832115310521F02130310531F018
:1001C0000AC0ECE7F0E08081808305C0ECE7F0E056
:1001D0008081816080838091070190910801009760
:1001E00021F08130910559F01AC0209178003091AA
:1001F0007900E0E0F1E031832083168210C0409165
:10020000780050917900E0E0F1E05383428320814F
:100210003181241B350B3583248321E0268301960D
:100220009093080180930701FF91EF919F918F9127
:100230005F914F913F912F910F900FBE0F901F90A4
:060240001895F894FFCFB1
:00000001FF
