:100000000C9434000C9446000C9446000C9446006A
:100010000C9446000C9446000C9446000C94460048
:100020000C9446000C9446000C9446000C94460038
:100030000C9446000C9446000C9446000C94460028
:100040000C9446000C9446000C9446000C94460018
:100050000C9446000C9493000C9446000C944600BB
:100060000C9446000C94460011241FBECFEFD8E03C
:10007000DEBFCDBF21E0A0E0B1E001C01D92AB30FA
:10008000B207E1F70E9448000C942E010C94000086
:1000900087B18E7F87B987B18D7F87B984B1816041
:1000A00084B984B1826084B984B1846084B984B134
:1000B000886084B985B18D7F85B985B18E7F85B91A
:1000C00085B18B7F85B9EAE7F0E080818460808329
:1000D000808182608083808181608083ACE7B0E032
:1000E0008C9180688C938C9180648C938C918F7DA3
:1000F0008C93C0E0D1E0188219828CE38C831E823D
:100100008C91807F8C938C918C938081886080838C
:10011000808180688083789480818064808385B1C9
:10012000886085B9FFCF1F920F920FB60F921124EE
:100130002F933F934F935F936F937F938F939F93EF
:10014000AF93BF93EF93FF9320910601222369F0B1
:10015000E0E0F1E0648170E0828193810E941A0105
:10016000738362831582168219C030917800809162
:10017000790090E0982F8827832BE0E0F1E042811E
:100180005381840F951F9383828385818F5F85833D
:100190009481891303C081E0809306012223A1F199
:1001A0008091020190910301873122E0920750F47F
:1001B00085B1877F85B985B18E7F85B985B18D7F02
:1001C00085B922C08F3323E0920768F085B184603F
:1001D00085B985B1877F85B985B18D7F85B985B1B1
:1001E000816085B911C0875192408832914060F496
:1001F00085B1846085B985B1886085B985B18E7F08
:1002000085B985B1826085B9EAE7F0E080818064D4
:100210008083FF91EF91BF91AF919F918F917F91DB
:100220006F915F914F913F912F910F900FBE0F9063
:100230001F901895AA1BBB1B51E107C0AA1FBB1F2B
:10024000A617B70710F0A61BB70B881F991F5A9562
:10025000A9F780959095BC01CD010895F894FFCF42
:00000001FF
