:100000000C9434000C9446000C9446000C9446006A
:100010000C9446000C9446000C9446000C94460048
:100020000C9446000C9446000C9446000C94460038
:100030000C9446000C9446000C9446000C94460028
:100040000C9446000C9446000C9446000C94460018
:100050000C9446000C945B000C9446000C944600F3
:100060000C9446000C94460011241FBECFEFD8E03C
:10007000DEBFCDBF21E0A0E0B1E001C01D92A53000
:10008000B207E1F70E94D0000C94DC000C94000051
:1000900080E480937C008FE880937A000895ECE7F9
:1000A000F0E09081987F892B8083EAE7F0E08081FF
:1000B0008064808308951F920F920FB60F921124CF
:1000C0002F933F934F935F936F937F938F939F9360
:1000D000AF93BF93EF93FF938091000181110CC008
:1000E00080917800909179009093040180930301AE
:1000F00081E0809300010AC080917800909179009E
:1001000090930201809301011092000180910301FC
:1001100090910401892B19F085B1846085B9809193
:100120000001813019F40E944F0029C080E00E9434
:100130004F008091030190910401892B01F180917E
:100140000301909104012091010130910201821B71
:10015000930B843A914054F485B1886085B985B198
:10016000816085B985B18D7F85B909C085B1877FEB
:1001700085B985B1826085B985B18E7F85B9FF91DA
:10018000EF91BF91AF919F918F917F916F915F910F
:100190004F913F912F910F900FBE0F901F90189588
:1001A0008FE084B985B1886085B90E944800789451
:0C01B00080E00E944F00FFCFF894FFCFCA
:00000001FF
